:020000040800F2
:1000000000500020910C0008410500084905000837
:1000100051050008590500086105000800000000AE
:10002000000000000000000000000000690500085A
:100030007505000800000000810500088D05000816
:10004000D90C0008D90C0008D90C0008D90C0008FC
:10005000D90C0008D90C0008D90C0008D90C0008EC
:10006000D90C0008D90C0008D90C0008D90C0008DC
:10007000D90C0008D90C00089D050008B10500083E
:10008000C5050008D9050008D90C0008D90C0008DE
:10009000ED050008D90C0008D90C0008D90C00089F
:1000A000D90C0008D90C0008D90C0008D90C00089C
:1000B000D90C0008D90C0008D90C0008D90C00088C
:1000C000D90C0008D90C0008D90C0008D90C00087C
:1000D000D90C0008010600081D070008D90C00080B
:1000E000D90C0008D90C0008D90C00080000000049
:1000F0000000000000000000000000000000000000
:0C01000000000000000000005FF808F1A3
:10010C0010B5054C237833B9044B13B10448AFF345
:10011C0000800123237010BD440200200000000069
:10012C001098000808B5034B1BB103490348AFF303
:10013C00008008BD00000000480200201098000854
:10014C0080B582B000AF294B5B69284A43F00103AC
:10015C005361264B5B6903F001037B607B68244B86
:10016C00244A1A60224B4FF480425A60204B4022A2
:10017C009A601F4B8022DA601D4B00221A611C4BC7
:10018C0000225A611A4B00229A61194B4FF400520B
:10019C00DA61174800F03CFF0346002B01D000F059
:1001AC0091F9002200210E2000F0EFFE0E2000F04D
:1001BC0008FF002200210F2000F0E7FE0F2000F0C6
:1001CC0000FF00220021102000F0DFFE102000F0C4
:1001DC00F8FE00220021112000F0D7FE112000F0C3
:1001EC00F0FE00BF0837BD4680BD00BF00100240C6
:1001FC00600200200800024080B485B000AF144BB0
:10020C009B69134A43F010039361114B9B6903F0F4
:10021C001003FB60FB680E4B9B690D4A43F02003F7
:10022C0093610B4B9B6903F02003BB60BB68084BCD
:10023C009B69074A43F004039361054B9B6903F0E8
:10024C0004037B607B6800BF1437BD4680BC7047DD
:10025C000010024080B500AF42F254020021474822
:10026C0009F0A4FA454B464A1A60444B454A5A6079
:10027C00424B454ADA60414B444A1A613F4B2522B6
:10028C001A723E4B03F580531A46414B93623B4B1B
:10029C0003F580531A463F4BD362384B03F580531A
:1002AC001A463D4B5363354B03F580531A463B4B73
:1002BC009363324B03F58053262283F830202F4B67
:1002CC0003F500531A46364B136500F001FD00F0A0
:1002DC0069F8FFF791FFFFF733FF00F0ADFA00F07C
:1002EC00D5FA08F059FC052000F044FE022200214A
:1002FC00132000F04AFE03220021142000F045FEDA
:10030C0001220021252000F040FE012200212620A0
:10031C0000F03BFE022200210B2000F036FE0122F1
:10032C0001210E2000F031FE002201210F2000F0EF
:10033C002CFE01220121102000F027FE00220121B9
:10034C00112000F022FE0F4B1B68DA680D4B1B6866
:10035C0022F40052DA600F4B1B68DA680D4B1B68F5
:10036C0022F40052DA604FF47A7000F013FD4FF46F
:10037C007A7000F00FFD00BFF5E700BFA40200206B
:10038C0028980008F822002088230020CC23002085
:10039C003098000840230020102400205424002012
:1003AC006002002080B594B000AF07F1280328222A
:1003BC000021184609F0FAF907F1140300221A601B
:1003CC005A609A60DA601A613B1D00221A605A600A
:1003DC009A60DA600123BB624FF48033FB62002326
:1003EC003B630123BB6302237B644FF48033BB6408
:1003FC004FF4E013FB6407F12803184603F062F98D
:10040C000346002B01D000F05DF80F237B61022323
:10041C00BB610023FB614FF480633B6200237B6272
:10042C0007F114030221184603F0CEFB0346002B00
:10043C0001D000F047F810237B6000233B613B1D8B
:10044C00184603F04FFD0346002B01D000F03AF89C
:10045C0000BF5037BD4680BD80B483B000AF78601C
:10046C00396000BF0C37BD4680BC704780B582B088
:10047C0000AF7860396000BF00220721054808F002
:10048C001BFD0346012BF7D000BF00BF0837BD464C
:10049C0080BD00BF3898000880B582B000AF78608E
:1004AC00396000BF02220721054808F005FD03460C
:1004BC00012BF7D000BF00BF0837BD4680BD00BF81
:1004CC004098000880B400AF00BFBD4680BC7047A8
:1004DC0080B485B000AF154B9B69144A43F00103FF
:1004EC009361124B9B6903F00103BB60BB680F4B1C
:1004FC00DB690E4A43F08053D3610C4BDB6903F08C
:10050C0080537B607B680A4B5B68FB60FB6823F065
:10051C00E063FB60FB6843F00073FB60044AFB681C
:10052C00536000BF1437BD4680BC704700100240BA
:10053C000000014080B400AF00BFFDE780B400AF05
:10054C0000BFFDE780B400AF00BFFDE780B400AF93
:10055C0000BFFDE780B400AF00BFFDE780B400AF83
:10056C0000BFBD4680BC704780B400AF00BFBD4625
:10057C0080BC704780B400AF00BFBD4680BC7047E4
:10058C0080B500AF00F0EAFB00F035FD00BF80BD88
:10059C0080B500AF024801F07DF800BF80BD00BF00
:1005AC00CC23002080B500AF024801F073F800BFE7
:1005BC0080BD00BF8823002080B500AF024801F049
:1005CC0069F800BF80BD00BF1024002080B500AFCB
:1005DC00024801F05FF800BF80BD00BF542400202A
:1005EC0080B500AF024801F029FC00BF80BD00BF00
:1005FC00C42C002080B584B000AF434803F08CFEBF
:10060C00414B1B681B6803F01003102B77D13F4B39
:10061C00BB6000237B60BB685B681B681B687B60EE
:10062C00BB685B681B685B687B607B68BB6803F5B9
:10063C0080531B6A002B07D1BB68DB681B685B68A7
:10064C00C3F50063FB6006E0BB68DB681B685B6896
:10065C00C3F58063FB60BB685B68184603F0DDFD87
:10066C00FB68002B3CDDFB68012B12D1BB6803F54A
:10067C0080531B6ABA689B02134414331A68BB6814
:10068C00C3F81428BB6803F580531A460123D361C1
:10069C0026E01E4B03F50053186DBB6803F5805321
:1006AC001B6A9B021033BA68134404331946BB68A7
:1006BC0003F614031A46FB6800F004FD134B03F514
:1006CC0000531B6D02220021184600F051FE034618
:1006DC00002B05D1BB6803F580531A46FB68D36128
:1006EC00BB6803F580531A4600231362BB68586835
:1006FC00BB6814334FF40062194603F069FD00BF68
:10070C001037BD4680BD00BFF8220020A402002097
:10071C0080B584B000AF424803F0FEFD404B1B682F
:10072C001B6803F01003102B75D13E4BBB600023EC
:10073C007B603B4B1B681B687B60394B1B685B68A1
:10074C007B607B68BB6803F580531B6A002B07D169
:10075C00BB68DB681B685B68C3F50063FB6006E085
:10076C00BB68DB681B685B68C3F58063FB60BB68B8
:10077C005B68184603F051FDFB68002B3CDDFB6801
:10078C00012B12D1BB6803F580531B6ABA689B021C
:10079C00134414331A68BB68C3F81428BB6803F5F8
:1007AC0080531A460123D36126E01F4B03F50053F7
:1007BC00186DBB6803F580531B6A9B021033BA6833
:1007CC00134404331946BB6803F614031A46FB683A
:1007DC0000F078FC144B03F500531B6D0A2200212A
:1007EC00184600F0C5FD0346002B05D1BB6803F588
:1007FC0080531A46FB68D361BB6803F580531A46D5
:10080C0000231362BB685868BB6814334FF4006252
:10081C00194603F0DDFC00BF1037BD4680BD00BF9C
:10082C0040230020CC120020A402002080B400AF92
:10083C0000BFBD4680BC704780B500AF114B124A5B
:10084C001A60104B4FF4E1325A600E4B00229A6042
:10085C000C4B0022DA600B4B00221A61094B0C2264
:10086C005A61084B00229A61064B0022DA61054856
:10087C0003F0EEFB0346002B01D0FFF723FE00BF75
:10088C0080BD00BFF82200200038014080B500AFC9
:10089C00114B124A1A60104B4FF4E1325A600E4B56
:1008AC0000229A600C4B0022DA600B4B00221A617A
:1008BC00094B0C225A61084B00229A61064B00220C
:1008CC00DA61054803F0C4FB0346002B01D0FFF7A7
:1008DC00F9FD00BF80BD00BF402300200044004054
:1008EC0080B58AB000AF786007F1180300221A6057
:1008FC005A609A60DA607B681B688D4A934240F0BC
:10090C0088808C4B9B698B4A43F480439361894B61
:10091C009B6903F480437B617B69864B9B69854AA9
:10092C0043F004039361834B9B6903F004033B6125
:10093C003B694FF40073BB610223FB6103237B62B1
:10094C0007F1180319467C4800F0D8FF4FF4806378
:10095C00BB610023FB6100233B6207F118031946BE
:10096C00754800F0CBFF754B754A1A60734B00222B
:10097C005A60724B00229A60704B8022DA606F4B87
:10098C0000221A616D4B00225A616C4B20229A6135
:10099C006A4B4FF40052DA61684800F039FB0346A9
:1009AC00002B01D0FFF78EFD7B68644ADA63634A43
:1009BC007B685362634B644A1A60624B10225A6024
:1009CC00604B00229A605F4B8022DA605D4B002204
:1009DC001A615C4B00225A615A4B00229A61594BA6
:1009EC000022DA61574800F013FB0346002B01D0BC
:1009FC00FFF768FD7B68534A9A63524A7B685362DF
:100A0C0000220021252000F0C0FA252000F0D9FAA0
:100A1C008AE07B681B684D4A934240F08580454BC9
:100A2C00DB69444A43F40033D361424BDB6903F482
:100A3C000033FB60FB683F4B9B693E4A43F0040369
:100A4C0093613C4B9B6903F00403BB60BB680423BC
:100A5C00BB610223FB6103237B6207F11803194678
:100A6C00354800F04BFF0823BB610023FB610023DA
:100A7C003B6207F1180319462F4800F03FFF344B37
:100A8C00344A1A60324B00225A60314B00229A6071
:100A9C002F4B8022DA602E4B00221A612C4B002245
:100AAC005A612B4B20229A61294B4FF40052DA6188
:100ABC00274800F0ADFA0346002B01D0FFF702FDEA
:100ACC007B68234ADA63224A7B685362224B234AAF
:100ADC001A60214B10225A601F4B00229A601E4B49
:100AEC008022DA601C4B00221A611B4B00225A61D7
:100AFC00194B00229A61184B0022DA61164800F05B
:100B0C0087FA0346002B01D0FFF7DCFC7B68124A06
:100B1C009A63114A7B68536200220021262000F060
:100B2C0034FA262000F04DFA00BF2837BD4680BDB0
:100B3C0000380140001002400008014088230020CA
:100B4C0058000240CC2300204400024000440040E6
:100B5C00102400206C00024054240020800002402D
:100B6C0080B485B000AF78607B68164A934201D19F
:100B7C00154B00E0154BFB60FB6803F580531B6ABB
:100B8C00002B05D0FB6803F580531A460023136233
:100B9C00FB6803F580535B6A012B0DD0FB6803F5F2
:100BAC0080531A464FF480635361FB6803F58053FE
:100BBC001A460123136200E000BF1437BD4680BC07
:100BCC00704700BFF8220020A4020020CC120020A5
:100BDC0080B485B000AF78607B68164A934201D12F
:100BEC00154B00E0154BFB60FB6803F580531B6A4B
:100BFC00012B05D0FB6803F580531A4601231362C1
:100C0C00FB6803F580535B6A002B0DD0FB6803F582
:100C1C0080531A464FF480639361FB6803F580534D
:100C2C001A460023136200E000BF1437BD4680BC97
:100C3C00704700BFF8220020A4020020CC12002034
:100C4C0080B584B000AF78607B680B4A934201D1C9
:100C5C000A4B00E00A4BFB60786803F0DEFAFB6895
:100C6C0014334FF400621946786803F0B1FA00BFF0
:100C7C001037BD4680BD00BFF8220020A402002022
:100C8C00CC120020FFF7D2FD0B480C490C4A002374
:100C9C0002E0D458C4500433C4188C42F9D3094A26
:100CAC00094C002301E013600432A242FBD308F08C
:100CBC0085FDFFF7CFFA70470000002044020020AA
:100CCC000099000844020020BC310020FEE700001F
:100CDC0080B500AF084B1B68074A43F01003136044
:100CEC00032000F047F90F2000F008F8FFF7F0FBA5
:100CFC000023184680BD00BF0020024080B582B0A2
:100D0C0000AF7860124B1A68124B1B7819464FF4DF
:100D1C007A73B3FBF1F3B2FBF3F3184600F05FF90F
:100D2C000346002B01D001230EE07B680F2B0AD861
:100D3C00002279684FF0FF3000F027F9064A7B68F3
:100D4C001360002300E0012318460837BD4680BD20
:100D5C0000000020080000200400002080B400AF38
:100D6C00054B1B781A46054B1B681344034A13604A
:100D7C0000BFBD4680BC70470800002098240020AE
:100D8C0080B400AF024B1B681846BD4680BC704750
:100D9C009824002080B584B000AF7860FFF7F0FF96
:100DAC00B8607B68FB60FB68B3F1FF3F05D00A4B72
:100DBC001B781A46FB681344FB6000BFFFF7E0FF8B
:100DCC000246BB68D31AFA689A42F7D800BF00BF34
:100DDC001037BD4680BD00BF0800002080B485B030
:100DEC0000AF78607B6803F00703FB600C4BDB689B
:100DFC00BB60BA684FF6FF031340BB60FB681A0276
:100E0C00BB68134343F0BF6343F40033BB60044A35
:100E1C00BB68D36000BF1437BD4680BC704700BFB1
:100E2C0000ED00E080B400AF044BDB681B0A03F05C
:100E3C0007031846BD4680BC704700BF00ED00E0BC
:100E4C0080B483B000AF0346FB7197F90730002BD9
:100E5C000BDBFB7903F01F02064997F907305B099E
:100E6C00012000FA02F241F8232000BF0C37BD46E6
:100E7C0080BC704700E100E080B483B000AF034653
:100E8C003960FB7197F90730002B0ADB3B68DAB24B
:100E9C000C4997F907301201D2B20B4483F80023A6
:100EAC000AE03B68DAB20849FB7903F00F03043B14
:100EBC001201D2B20B441A7600BF0C37BD4680BC6F
:100ECC00704700BF00E100E000ED00E080B489B0A5
:100EDC0000AFF860B9607A60FB6803F00703FB6150
:100EEC00FB69C3F10703042B28BF0423BB61FB6917
:100EFC000433062B02D9FB69033B00E000237B6122
:100F0C004FF0FF32BB6902FA03F3DA43BB681A40B5
:100F1C007B699A404FF0FF317B6901FA03F3D943A7
:100F2C007B680B40134318462437BD4680BC704782
:100F3C0080B582B000AF78607B68013BB3F1807FF5
:100F4C0001D301230FE00A4A7B68013B53600F2158
:100F5C004FF0FF30FFF790FF054B00229A60044BD7
:100F6C0007221A60002318460837BD4680BD00BF13
:100F7C0010E000E080B582B000AF78607868FFF7D1
:100F8C002DFF00BF0837BD4680BD80B586B000AFD1
:100F9C000346B9607A60FB7300237B61FFF742FF65
:100FAC0078617A68B9687869FFF790FF024697F91B
:100FBC000F3011461846FFF75FFF00BF1837BD46CC
:100FCC0080BD80B582B000AF0346FB7197F9073046
:100FDC001846FFF735FF00BF0837BD4680BD80B50A
:100FEC0082B000AF78607868FFF7A2FF034618461E
:100FFC000837BD4680BD80B500AF00F002F800BFD9
:10100C0080BD80B400AF00BFBD4680BC70470000FF
:10101C0080B485B000AF78600023FB607B68002B48
:10102C0001D1012343E07B681B681A46224B134411
:10103C00224AA2FB03231B099A007B681A647B6873
:10104C001F4ADA637B68022283F821207B681B68C5
:10105C001B68FB60FB6823F47F5323F03003FB60B9
:10106C007B685A687B689B681A437B68DB681A4309
:10107C007B681B691A437B685B691A437B689B69B5
:10108C001A437B68DB691343FA681343FB607B6884
:10109C001B68FA681A607B6800229A637B680122DD
:1010AC0083F821207B68002283F820200023184637
:1010BC001437BD4680BC7047F8FFFDBFCDCCCCCCFF
:1010CC000000024080B586B000AFF860B9607A606D
:1010DC003B600023FB75FB6893F82030012B01D19A
:1010EC0002232EE0FB68012283F82020FB6893F892
:1010FC002130DBB2012B1DD1FB68022283F82120A9
:10110C00FB6800229A63FB681B681A68FB681B6803
:10111C0022F001021A603B687A68B968F86800F03E
:10112C00BFFBFB681B681A68FB681B6842F0010276
:10113C001A6005E0FB68002283F820200223FB756F
:10114C00FB7D18461837BD4680BD80B586B000AF14
:10115C00F860B9607A603B600023FB75FB6893F81C
:10116C002030012B01D102234BE0FB68012283F8D4
:10117C002020FB6893F82130DBB2012B3AD1FB68BD
:10118C00022283F82120FB6800229A63FB681B680B
:10119C001A68FB681B6822F001021A603B687A68C7
:1011AC00B968F86800F07CFBFB68DB6A002B08D0A0
:1011BC00FB681B681A68FB681B6842F00E021A6019
:1011CC000FE0FB681B681A68FB681B6822F00402BE
:1011DC001A60FB681B681A68FB681B6842F00A02FD
:1011EC001A60FB681B681A68FB681B6842F00102F6
:1011FC001A6005E0FB68002283F820200223FB75AF
:10120C00FB7D18461837BD4680BD80B485B000AF55
:10121C0078600023FB737B6893F82130DBB2022BE0
:10122C0008D07B6804229A637B68002283F8202014
:10123C00012320E07B681B681A687B681B6822F01E
:10124C000E021A607B681B681A687B681B6822F0A8
:10125C0001021A607B681A6C7B68DB6B012101FA56
:10126C0002F25A607B68012283F821207B680022FD
:10127C0083F82020FB7B18461437BD4680BC704792
:10128C0080B584B000AF78600023FB737B6893F863
:10129C002130DBB2022B05D07B6804229A63012338
:1012AC00FB7351E07B681B681A687B681B6822F033
:1012BC000E021A607B681B681A687B681B6822F038
:1012CC0001021A607B681B68224A934229D07B6812
:1012DC001B68214A934222D07B681B681F4A9342A9
:1012EC001AD07B681B681E4A934212D07B681B681D
:1012FC001C4A93420AD07B681B681B4A934202D15A
:10130C004FF480130EE04FF080730BE04FF48033FA
:10131C0008E04FF4805305E04FF4807302E0102393
:10132C0000E00123114A53607B68012283F82120DD
:10133C007B68002283F820207B685B6B002B03D03A
:10134C007B685B6B78689847FB7B18461037BD460B
:10135C0080BD00BF080002401C000240300002406B
:10136C0044000240580002406C0002400000024061
:10137C0080B586B000AFF860B9607A6000233B613D
:10138C00FB6893F82130DBB2022B08D0FB680422F7
:10139C009A63FB68002283F82020012367E1FB6835
:1013AC001B681B6803F02003002B05D0FB684FF46F
:1013BC0080729A6301235AE1BB68002B31D1FB6820
:1013CC001B68884A934229D0FB681B68864A934263
:1013DC0022D0FB681B68854A93421AD0FB681B68B5
:1013EC00834A934212D0FB681B68824A93420AD00C
:1013FC00FB681B68804A934202D14FF400130EE045
:10140C004FF000730BE04FF4003308E04FF400533F
:10141C0005E04FF4007302E0202300E002237B611F
:10142C0030E0FB681B686F4A934229D0FB681B684D
:10143C006D4A934222D0FB681B686C4A93421AD0C7
:10144C00FB681B686A4A934212D0FB681B68694AA6
:10145C0093420AD0FB681B68674A934202D14FF44F
:10146C0080030EE04FF080630BE04FF4802308E024
:10147C004FF4804305E04FF4806302E0402300E02A
:10148C0004237B61FFF77CFC38616BE05B4B1A68D3
:10149C00FB681B6853498B4229D0FB681B68524977
:1014AC008B4222D0FB681B6850498B421AD0FB68D8
:1014BC001B684F498B4212D0FB681B684D498B420D
:1014CC000AD0FB681B684C498B4202D14FF40003D5
:1014DC000EE04FF000630BE04FF4002308E04FF4F4
:1014EC00004305E04FF4006302E0802300E0082392
:1014FC001340002B17D0FB681A6CFB68DB6B0121C7
:10150C0001FA02F25A60FB689B6B43F00102FB6824
:10151C009A63FB68012283F82120FB68002283F880
:10152C0020200123A3E07B68B3F1FF3F1AD07B6836
:10153C00002B07D0FFF724FC02463B69D31A7A68CC
:10154C009A420FD2FB689B6B43F02002FB689A63B4
:10155C00FB68012283F82120FB68002283F82020FD
:10156C00012384E0254B1A687B691340002B8DD036
:10157C00BB68002B44D1FB681B681A4A934229D0E4
:10158C00FB681B68184A934222D0FB681B68174AF9
:10159C0093421AD0FB681B68154A934212D0FB6821
:1015AC001B68144A93420AD0FB681B68124A934288
:1015BC0002D14FF400130EE04FF000730BE04FF428
:1015CC00003308E04FF4005305E04FF4007302E0E1
:1015DC00202300E00223094A5360FB68012283F8B0
:1015EC0021203FE0080002401C0002403000024075
:1015FC0044000240580002406C00024000000240CF
:10160C00FB681B681C4A934229D0FB681B681B4A69
:10161C00934222D0FB681B68194A93421AD0FB688C
:10162C001B68184A934212D0FB681B68164A9342F7
:10163C000AD0FB681B68154A934202D14FF4800311
:10164C000EE04FF080630BE04FF4802308E04FF482
:10165C00804305E04FF4806302E0402300E0042364
:10166C000B4A5360FB68002283F8202000231846A5
:10167C001837BD4680BD00BF080002401C00024068
:10168C003000024044000240580002406C0002400E
:10169C000000024080B584B000AF78607B68DB6BE3
:1016AC001B68FB607B681B681B68BB607B681B6CE2
:1016BC0004229A40FB681340002B4FD0BB6803F008
:1016CC000403002B4AD07B681B681B6803F02003C3
:1016DC00002B07D17B681B681A687B681B6822F09B
:1016EC0004021A607B681B68664A934229D07B68A7
:1016FC001B68654A934222D07B681B68634A9342FD
:10170C001AD07B681B68624A934212D07B681B68B4
:10171C00604A93420AD07B681B685F4A934202D1AD
:10172C004FF480030EE04FF080630BE04FF4802306
:10173C0008E04FF4804305E04FF4806302E040235F
:10174C0000E00423554A53607B68DB6A002B00F0F1
:10175C0094807B68DB6A786898478EE07B681B6CAA
:10176C0002229A40FB681340002B56D0BB6803F052
:10177C000203002B51D07B681B681B6803F020030D
:10178C00002B0BD17B681B681A687B681B6822F0E6
:10179C000A021A607B68012283F821207B681B688F
:1017AC00384A934229D07B681B68374A934222D02F
:1017BC007B681B68354A93421AD07B681B68344A95
:1017CC00934212D07B681B68324A93420AD07B68E2
:1017DC001B68314A934202D14FF400130EE04FF0D4
:1017EC0000730BE04FF4003308E04FF4005305E0B6
:1017FC004FF4007302E0202300E00223274A5360D9
:10180C007B68002283F820207B689B6A002B34D0F5
:10181C007B689B6A786898472FE07B681B6C082272
:10182C009A40FB681340002B28D0BB6803F00803D8
:10183C00002B23D07B681B681A687B681B6822F01E
:10184C000E021A607B681A6C7B68DB6B012101FA53
:10185C0002F25A607B6801229A637B68012283F84A
:10186C0021207B68002283F820207B681B6B002BD7
:10187C0004D07B681B6B7868984700BF00BF10379B
:10188C00BD4680BD080002401C00024030000240F2
:10189C0044000240580002406C000240000002402C
:1018AC0080B485B000AFF860B9607A603B60FB68CB
:1018BC001A6CFB68DB6B012101FA02F25A60FB68BF
:1018CC001B683A685A60FB685B68102B08D1FB6890
:1018DC001B687A689A60FB681B68BA68DA6007E074
:1018EC00FB681B68BA689A60FB681B687A68DA60E8
:1018FC0000BF1437BD4680BC7047000080B48BB06D
:10190C0000AF7860396000237B6200233B6269E1A1
:10191C0001227B6A02FA03F3FB613B681B68FA69DC
:10192C001340BB61BA69FB699A4240F058813B682D
:10193C005B689A4A93425ED0984A934275D8984A0B
:10194C00934258D0964A93426FD8964A934252D0BB
:10195C00944A934269D8944A93424CD0924A934207
:10196C0063D8924A934246D0904A93425DD8122B48
:10197C002AD8122B59D801A252F823F0031A0008C6
:10198C00DD190008EF190008311A0008371A000891
:10199C00371A0008371A0008371A0008371A0008D7
:1019AC00371A0008371A0008371A0008371A0008C7
:1019BC00371A0008371A0008371A0008371A0008B7
:1019CC00E5190008F9190008794A934213D02CE064
:1019DC003B68DB683B6229E03B68DB6804333B62B5
:1019EC0024E03B68DB6808333B621FE03B68DB6844
:1019FC000C333B621AE03B689B68002B02D104233A
:101A0C003B6213E03B689B68012B05D108233B62CA
:101A1C007B68FA691A6109E008233B627B68FA6902
:101A2C005A6103E000233B6200E000BFBB69FF2B5F
:101A3C0001D87B6801E07B6804337B61BB69FF2BB9
:101A4C0002D87B6A9B0002E07B6A083B9B003B61EF
:101A5C007B691A680F213B6901FA03F3DB431A40D7
:101A6C00396A3B6901FA03F31A437B691A603B68D4
:101A7C005B6803F08053002B00F0B1804D4B9B69E9
:101A8C004C4A43F0010393614A4B9B6903F00103F9
:101A9C00BB60BB68484A7B6A9B08023352F8233010
:101AAC00FB607B6A03F003039B000F2202FA03F333
:101ABC00DB43FA681340FB607B68404A934213D0C7
:101ACC007B683F4A93420DD07B683E4A934207D0D5
:101ADC007B683D4A934201D1032306E0042304E0D2
:101AEC00022302E0012300E000237A6A02F00302E1
:101AFC0092009340FA681343FB602F497B6A9B0862
:101B0C000233FA6841F823203B685B6803F48013C6
:101B1C00002B06D02D4B9A682C49BB6913438B6064
:101B2C0006E02A4B9A68BB69DB43284913408B605B
:101B3C003B685B6803F40013002B06D0234BDA6878
:101B4C002249BB691343CB6006E0204BDA68BB69C2
:101B5C00DB431E491340CB603B685B6803F40033E6
:101B6C00002B06D0194B5A681849BB6913434B60BC
:101B7C0006E0164B5A68BB69DB43144913404B60B3
:101B8C003B685B6803F48033002B21D00F4B1A6841
:101B9C000E49BB6913430B6021E000BF00003210FB
:101BAC000000311000002210000021100000121063
:101BBC00000011100010024000000140000801401C
:101BCC00000C0140001001400014014000040140D1
:101BDC000B4B1A68BB69DB43094913400B607B6AEA
:101BEC0001337B623B681A687B6A22FA03F3002B91
:101BFC007FF48EAE00BF00BF2C37BD4680BC704753
:101C0C000004014080B584B000AF78607B68002B85
:101C1C0001D10123E8E07B6893F89132DBB2002B11
:101C2C0006D17B68002283F89022786807F060FA6E
:101C3C007B68032283F891227B6800225A717B68AF
:101C4C001B68184603F07DFA7B6818687B680433C0
:101C5C000ECB03F053FA0346002B05D07B6802220F
:101C6C0083F891220123BFE07B681B680021184692
:101C7C0003F081FA0346002B05D07B68022283F81F
:101C8C0091220123B0E00023FB733EE0FA7B7968DC
:101C9C0013469B001344DB000B44113301221A70D2
:101CAC00FA7B796813469B001344DB000B4410331A
:101CBC00FA7B1A70FA7B796813469B001344DB009D
:101CCC000B44133300221A70FA7B796813469B007D
:101CDC001344DB000B44203300221A60FA7B796832
:101CEC0013469B001344DB000B44243300221A6080
:101CFC00FB7B79685A1C13469B001344DB000B4496
:101D0C0000221A60FB7B0133FB737B681B79FA7B27
:101D1C009A42BBD30023FB7344E0FA7B79681346E9
:101D2C009B001344DB000B4403F2511300221A7086
:101D3C00FA7B796813469B001344DB000B4403F5D4
:101D4C00A873FA7B1A70FA7B796813469B001344CC
:101D5C00DB000B4403F2531300221A70FA7B7968F0
:101D6C0013469B001344DB000B4403F5B0730022B5
:101D7C001A60FA7B796813469B001344DB000B4412
:101D8C0003F5B27300221A60FA7B796813469B0044
:101D9C001344DB000B4403F5B47300221A60FB7B85
:101DAC000133FB737B681B79FA7B9A42B5D37B6852
:101DBC0018687B6804330ECB03F0E9F90346002B5B
:101DCC0005D07B68022283F8912201230CE07B680A
:101DDC0000225A737B68012283F891227B681B686E
:101DEC00184605F068FC002318461037BD4680BD28
:101DFC0080B582B000AF78607B6893F89032012B8D
:101E0C0001D1022316E07B68012283F890227B68C3
:101E1C001B68184603F07FF90121786807F0BBFCBA
:101E2C007B681B68184605F03CFC7B68002283F835
:101E3C009022002318460837BD4680BD80B588B077
:101E4C0000AF78607B681B68184605F03EFCB861F3
:101E5C00BB6903F40043002B03D0786800F01AFB35
:101E6C0019E1BB6903F48063002B13D07B681B68FA
:101E7C00B3F844309AB27B681B6822F4806292B249
:101E8C00A3F84420786807F0AEF90021786800F0D8
:101E9C0005F900E1BB6903F48043002B0CD07B688F
:101EAC001B68B3F844309AB27B681B6822F48042FA
:101EBC0092B2A3F84420EEE0BB6903F40053002B6C
:101ECC000CD07B681B68B3F844309AB27B681B68F3
:101EDC0022F4005292B2A3F84420DCE0BB6903F474
:101EEC008053002B27D07B681B68B3F840309AB224
:101EFC007B681B6822F0040292B2A3F840207B6836
:101F0C001B68B3F840309AB27B681B6822F0080259
:101F1C0092B2A3F84020786807F0A2F97B681B689E
:101F2C00B3F844309AB27B681B6822F4805292B2A8
:101F3C00A3F84420AFE0BB6903F40063002B00F06E
:101F4C0083800023FB7710E07B681B681A46FB7FBD
:101F5C009B001A44FB7F128892B25B0020333B44F7
:101F6C0023F8182CFB7F0133FB77FB7F072BEBD976
:101F7C007B681B68B3F840309AB27B681B6842F0F0
:101F8C00010292B2A3F840207B681B68B3F8403082
:101F9C009AB27B681B6822F0010292B2A3F840202F
:101FAC0000BF7B681B68B3F844309BB203F48063BA
:101FBC00002BF6D07B681B68B3F844309AB27B6870
:101FCC001B6822F4806292B2A3F844200023FB77B2
:101FDC000FE0FB7F7A6812681146FA7F92000A4480
:101FEC005B0020333B4433F8183C1380FB7F0133F8
:101FFC00FB77FB7F072BECD97B681B68B3F8403071
:10200C009AB27B681B6842F0080292B2A3F8402097
:10201C007B681B68B3F844309AB27B681B6822F467
:10202C00006292B2A3F844207B681B68B3F840307E
:10203C009AB27B681B6842F0040292B2A3F840206B
:10204C00786807F0F3F826E0BB6903F40073002B03
:10205C000FD07B681B68B3F844309AB27B681B685E
:10206C0022F4007292B2A3F84420786807F0ADF81D
:10207C0011E0BB6903F48073002B0CD07B681B68E8
:10208C00B3F844309AB27B681B6822F4807292B227
:10209C00A3F8442000BF2037BD4680BD80B582B078
:1020AC0000AF78600B46FB707B6893F89032012B85
:1020BC0001D1022312E07B68012283F890227B6815
:1020CC00FA785A737B681B68FA781146184605F043
:1020DC00D5FA7B68002283F8902200231846083733
:1020EC00BD4680BD80B584B000AF7860084611460F
:1020FC001A460346FB700B463B801346BB7000230D
:10210C00FB7297F90330002B0EDAFB7803F0070211
:10211C0013469B001344DB0010337A681344FB60B6
:10212C00FB6801225A700EE0FB7803F0070213469D
:10213C009B001344DB0003F5A8737A681344FB601F
:10214C00FB6800225A70FB7803F00703DAB2FB68D5
:10215C001A703A88FB681A61FB68BA78DA70BB7837
:10216C00022B02D1FB6800221A717B6893F8903223
:10217C00012B01D102230EE07B68012283F890220F
:10218C007B681B68F968184603F01EF87B68002210
:10219C0083F89022FB7A18461037BD4680BD80B577
:1021AC0084B000AF78600B46FB7097F90330002BBE
:1021BC000EDAFB7803F0070213469B001344DB0096
:1021CC0010337A681344FB60FB6801225A700EE0EE
:1021DC00FB7803F0070213469B001344DB0003F566
:1021EC00A8737A681344FB60FB6800225A70FB7872
:1021FC0003F00703DAB2FB681A707B6893F890322D
:10220C00012B01D102230EE07B68012283F890227E
:10221C007B681B68F968184603F096FB7B68002204
:10222C0083F89022002318461037BD4680BD80B538
:10223C0086B000AFF8607A603B600B46FB72FB7AAD
:10224C0003F0070213469B001344DB0003F5A8734D
:10225C00FA6813447B617B697A685A617B693A68D6
:10226C009A617B690022DA617B6900225A70FB7AE1
:10227C0003F00703DAB27B691A70FB681B68796993
:10228C00184603F04DFD002318461837BD4680BD97
:10229C0080B483B000AF78600B46FB70FB7803F022
:1022AC000702796813469B001344DB000B4403F5CB
:1022BC00B6731B6818460C37BD4680BC704780B59A
:1022CC0086B000AFF8607A603B600B46FB72FB7A1D
:1022DC0003F0070213469B001344DB001033FA682B
:1022EC0013447B617B697A685A617B693A689A61AD
:1022FC007B69012283F824207B693A681A627B6926
:10230C000022DA617B6901225A70FB7A03F0070321
:10231C00DAB27B691A70FB681B687969184603F09E
:10232C00FFFC002318461837BD4680BD80B584B02D
:10233C0000AF78600B46FB70FB7803F007037A68FC
:10234C001279934201D901234CE097F90330002B09
:10235C000EDAFB7803F0070213469B001344DB00F4
:10236C0010337A681344FB60FB6801225A700CE04E
:10237C00FA7813469B001344DB0003F5A8737A68C4
:10238C001344FB60FB6800225A70FB6801229A70B0
:10239C00FB7803F00703DAB2FB681A707B6893F8DA
:1023AC009032012B01D102231CE07B68012283F8BF
:1023BC0090227B681B68F968184605F062F8FB7878
:1023CC0003F00703002B08D17B681A687B6803F5C0
:1023DC0026731946104605F087F97B68002283F8AE
:1023EC009022002318461037BD4680BD80B584B0BE
:1023FC0000AF78600B46FB70FB7803F00F037A6834
:10240C001279934201D9012340E097F90330002B54
:10241C000EDAFB7803F0070213469B001344DB0033
:10242C0010337A681344FB60FB6801225A700EE08B
:10243C00FB7803F0070213469B001344DB0003F503
:10244C00A8737A681344FB60FB6800225A70FB681F
:10245C0000229A70FB7803F00703DAB2FB681A705B
:10246C007B6893F89032012B01D102230EE07B683C
:10247C00012283F890227B681B68F968184605F0E6
:10248C0050F87B68002283F89022002318461037FE
:10249C00BD4680BD80B596B000AF7860BBE37B686D
:1024AC001B68B3F84430A7F84E30B7F84E30DBB2A7
:1024BC0003F00F0387F84D3097F84D30002B40F0A8
:1024CC007581B7F84E3003F01003002B4ED17B68AA
:1024DC001B681B889BB223F4E14323F07003FB8140
:1024EC007B681A68FB896FEA43436FEA53439BB2DC
:1024FC0013807B6810337B657B681B68B3F85030A6
:10250C009BB21A467B6D1B78DB00134402335B00D5
:10251C007A681268134403F580631B88C3F30902BD
:10252C007B6DDA617B6D5A697B6DDB691A447B6D5F
:10253C005A610021786806F02EFE7B685B7BDBB26B
:10254C00002B00F068837B6D9B69002B40F063834C
:10255C007B685B7BDBB263F07F03DAB27B681B6862
:10256C00A3F84C207B6800225A7354E37B6803F574
:10257C00A8737B657B681B681B88A7F84A30B7F883
:10258C004A3003F40063002B34D07B681B68B3F82B
:10259C0050309BB21A467B6D1B78DB00134406331C
:1025AC005B007A681268134403F580631B88C3F3DD
:1025BC0009027B6DDA617B6818687B6803F526710C
:1025CC007B6DDA887B6DDB699BB205F0DEF87B688E
:1025DC001B681B889AB240F68F7313403B827B6852
:1025EC001B683A8A42F0800292B21A80786806F030
:1025FC00A5FD10E3B7F94A30002B80F20C837B6801
:10260C001B681B889AB240F68F731340FB837B6860
:10261C001B68FA8B42F0800292B21A807B681B68AE
:10262C00B3F850309BB21A467B6D1B78DB00134419
:10263C0006335B007A681268134403F580631B88C9
:10264C00C3F309027B6DDA617B6DDB69002B19D05A
:10265C007B6D5B69002B15D07B6818687B6D5969A5
:10266C007B6DDA887B6DDB699BB205F08EF87B6D38
:10267C005A697B6DDB691A447B6D5A61002178685D
:10268C0006F06EFD7B681B681B88A7F84A30B7F80C
:10269C004A3003F40063002B40F0BD82B7F84A3097
:1026AC0003F44053B3F5405F00F0B5827B681B68C0
:1026BC00BB617B681B68B3F850309BB21A46BB6990
:1026CC001344BB61BB6903F20C437B617B691B88C0
:1026DC009BB2C3F309039AB27B691A807B6D1B69A9
:1026EC003E2B1DD97B6D1B695B097B647B6D1B6964
:1026FC0003F01F03002B02D17B6C013B7B647B69D5
:10270C001B889AB27B6C9BB29B029BB213439BB20D
:10271C006FEA43436FEA53439AB27B691A8026E00F
:10272C007B6D1B69002B0AD17B691B889BB26FEAFE
:10273C0043436FEA53439AB27B691A8017E07B6D6F
:10274C001B695B087B647B6D1B6903F00103002B29
:10275C0002D07B6C01337B647B691B889AB27B6CE7
:10276C009BB29B029BB213439AB27B691A807B6823
:10277C001B681B889BB223F4804323F070037B827D
:10278C007B8A83F480537B827B8A83F400537B8225
:10279C007B681A687B8A43F07F4343F47F0343F4DE
:1027AC00004343F080039BB2138034E27B681B68C8
:1027BC001A4697F84D309B0013441B88A7F84A30F3
:1027CC00B7F94A30002B80F2FC807B681B681A46F4
:1027DC0097F84D309B0013441B889AB240F68F73C8
:1027EC001340A7F848307B681B681A4697F84D30A1
:1027FC009B001344B7F8482042F0800292B21A8032
:10280C0097F84D2013469B001344DB0003F5A87387
:10281C007A6813447B657B6D1B7B002B25D17B6811
:10282C001B68B3F850309BB21A467B6D1B78DB00EB
:10283C00134406335B007A681268134403F5806313
:10284C001B88C3F30903A7F85030B7F85030002B9E
:10285C0000F092807B6818687B6D59697B6DDA8813
:10286C00B7F8503004F091FF86E07B6DDB78022BDB
:10287C000AD1B7F84A301A46796D786800F0D9F960
:10288C000346A7F8503077E07B681B681A467B6DCF
:10289C001B789B0013441B889BB223F4E04323F06A
:1028AC007003A7F852307B681B681A467B6D1B7847
:1028BC009B001A44B7F8523043F07F4343F47F0334
:1028CC0043F4004343F0C0039BB213807B681B6846
:1028DC001A467B6D1B789B0013441B889BB203F438
:1028EC008043002B24D07B681B68B3F850309BB21C
:1028FC001A467B6D1B78DB00134402335B007A684D
:10290C001268134403F580631B88C3F30903A7F80B
:10291C005030B7F85030002B2ED07B6818687B6D88
:10292C0059697B6D1A89B7F8503004F02EFF23E0FB
:10293C007B681B68B3F850309BB21A467B6D1B78D2
:10294C00DB00134406335B007A681268134403F50A
:10295C0080631B88C3F30903A7F85030B7F85030D5
:10296C00002B09D07B6818687B6D59697B6D5A897F
:10297C00B7F8503004F009FF7B6DDA69B7F85030C6
:10298C001A447B6DDA617B6D5A69B7F850301A4482
:10299C007B6D5A617B6D9B69002B05D0B7F850207D
:1029AC007B6D1B699A4206D27B6D1B781946786841
:1029BC0006F0D6FB05E07B681B68796D184603F0C2
:1029CC00AFF9B7F84A3003F08003002B00F02381F5
:1029DC0097F84D2013469B001344DB0010337A68A4
:1029EC0013447B657B681B681A4697F84D309B0037
:1029FC0013441B889BB223F4E14323F07003A7F824
:102A0C0042307B681B681A4697F84D309B001A447D
:102A1C00B7F842306FEA43436FEA53439BB21380DB
:102A2C007B6DDB78012B40F0A2807B6D00229A61DC
:102A3C007B6D1B7B002B00F09380B7F84A3003F0C2
:102A4C004003002B46D07B6D5B78002B26D17B6836
:102A5C001B687B627B681B68B3F850309BB21A46CC
:102A6C007B6A13447B627B6D1B781A017B6A13446F
:102A7C0003F204433B623B6A1B889BB2C3F309031A
:102A8C009AB23B6A1A803B6A1B889BB26FEA43433B
:102A9C006FEA53439AB23B6A1A8061E07B6D5B78B4
:102AAC00012B5DD17B681B68FB627B681B68B3F8EC
:102ABC0050309BB21A46FB6A1344FB627B6D1B7849
:102ACC001A01FB6A134403F20443BB62BB6A002283
:102ADC001A8045E07B681B68FB637B6D5B78002B81
:102AEC0026D17B681B687B637B681B68B3F850300E
:102AFC009BB21A467B6B13447B637B6D1B781A016C
:102B0C007B6B134403F20C433B633B6B1B889BB204
:102B1C00C3F309039AB23B6B1A803B6B1B889BB2C5
:102B2C006FEA43436FEA53439AB23B6B1A8017E048
:102B3C007B6D5B78012B13D17B681B68B3F850302D
:102B4C009BB21A46FB6B1344FB637B6D1B781A011B
:102B5C00FB6B134403F20C43BB63BB6B00221A8068
:102B6C007B6D1B781946786806F015FB53E0B7F8B7
:102B7C004A3003F48073002B46D17B681B68B3F892
:102B8C0050309BB21A467B6D1B78DB00134402332A
:102B9C005B007A681268134403F580631B88C3F3E7
:102BAC000903A7F840307B6D9A69B7F840309A4218
:102BBC0007D97B6D9A69B7F84030D21A7B6D9A6150
:102BCC0002E07B6D00229A617B6D9B69002B06D124
:102BDC007B6D1B781946786806F0DDFA1BE07B6D7F
:102BEC005A69B7F840301A447B6D5A617B6DDA69CB
:102BFC00B7F840301A447B6DDA617B681B68796DDD
:102C0C00184603F08DF806E0B7F84A301A46796D8D
:102C1C00786800F01BF97B681B68B3F844309BB2F2
:102C2C001BB2002BFFF63BAC002318465837BD46B1
:102C3C0080BD80B588B000AFF860B9601346FB80EA
:102C4C00FB8803F48043002B7ED0FB681B68B3F831
:102C5C0050309BB21A46BB681B78DB00134402331E
:102C6C005B00FA681268134403F580631B88C3F396
:102C7C0009037B83BB689A697B8B9A4206D3BB683A
:102C8C009A697B8BD21ABB689A6102E0BB680022FE
:102C9C009A61BB689B69002B23D1FB681B681A46A1
:102CAC00BB681B789B0013441B889BB223F48043A6
:102CBC0023F070033B833B8B83F400533B83FB6813
:102CCC001B681A46BB681B789B001A443B8B43F06D
:102CDC007F4343F47F0343F4004343F080039BB2F0
:102CEC001380FB8803F04003002B1FD0FB681B688C
:102CFC001A46BB681B789B0013441B889BB223F4B9
:102D0C00E04323F07003FB82FB681B681A46BB6828
:102D1C001B789B001A44FB8A43F07F4343F47F03E8
:102D2C0043F4004343F0C0039BB213807B8B002B16
:102D3C0000F08780FB681868BB685969BB681A8902
:102D4C007B8B04F022FD7CE0FB681B68B3F85030F1
:102D5C009BB21A46BB681B78DB00134406335B003E
:102D6C00FA681268134403F580631B88C3F30903E4
:102D7C007B83BB689A697B8B9A4206D3BB689A6942
:102D8C007B8BD21ABB689A6102E0BB6800229A6105
:102D9C00BB689B69002B23D1FB681B681A46BB6878
:102DAC001B789B0013441B889BB223F4804323F0B5
:102DBC007003FB83FB8B83F40053FB83FB681B6862
:102DCC001A46BB681B789B001A44FB8B43F07F436D
:102DDC0043F47F0343F4004343F080039BB213801E
:102DEC00FB8803F04003002B1FD1FB681B681A46BD
:102DFC00BB681B789B0013441B889BB223F4E043F5
:102E0C0023F07003BB83FB681B681A46BB681B78F6
:102E1C009B001A44BB8B43F07F4343F47F0343F482
:102E2C00004343F0C0039BB213807B8B002B08D074
:102E3C00FB681868BB685969BB685A897B8B04F0BE
:102E4C00A4FC7B8B18462037BD4680BD80B5A4B052
:102E5C0000AFF860B9601346FB80FB8803F04003B9
:102E6C00002B00F0DD81FB681B68B3F850309BB27F
:102E7C001A46BB681B78DB00134402335B00FA680C
:102E8C001268134403F580631B88C3F30903A7F886
:102E9C008630BB689A69B7F886309A4207D9BB6806
:102EAC009A69B7F88630D21ABB689A6102E0BB689F
:102EBC0000229A61BB689B69002B40F0B980BB680B
:102ECC005B78002B26D1FB681B68FB62FB681B68D8
:102EDC00B3F850309BB21A46FB6A1344FB62BB68D2
:102EEC001B781A01FB6A134403F20443BB62BB6AEE
:102EFC001B889BB2C3F309039AB2BB6A1A80BB6AE4
:102F0C001B889BB26FEA43436FEA53439AB2BB6A86
:102F1C001A801AE0BB685B78012B16D1FB681B6822
:102F2C007B63FB681B68B3F850309BB21A467B6B13
:102F3C0013447B63BB681B781A017B6B134403F24D
:102F4C0004433B633B6B00221A80FB681B687B626B
:102F5C00BB685B78002B26D1FB681B68FB61FB68A8
:102F6C001B68B3F850309BB21A46FB691344FB61E3
:102F7C00BB681B781A01FB69134403F20C43BB6159
:102F8C00BB691B889BB2C3F309039AB2BB691A8055
:102F9C00BB691B889BB26FEA43436FEA53439AB2F7
:102FAC00BB691A8017E0BB685B78012B13D1FB68F7
:102FBC001B68B3F850309BB21A467B6A13447B6291
:102FCC00BB681B781A017B6A134403F20C433B6207
:102FDC003B6A00221A80BB681B781946F86806F019
:102FEC00DAF8FB8803F48043002B00F0FC82FB68CA
:102FFC001B681A46BB681B789B0013441B889BB24A
:10300C0023F4E04323F07003FB82FB681B681A4631
:10301C00BB681B789B001A44FB8A43F07F4343F444
:10302C007F0343F4404343F080039BB21380DAE206
:10303C00FB8803F48043002B21D0FB681B681A46E5
:10304C00BB681B789B0013441B889BB223F4E043A2
:10305C0023F07003A7F88A30FB681B681A46BB681C
:10306C001B789B001A44B7F88A3043F07F4343F433
:10307C007F0343F4404343F080039BB21380BB684F
:10308C0093F82430012B40F0AE82BB685A69B7F834
:10309C0086301A44BB685A61BB68DA69B7F8863067
:1030AC001A44BB68DA61BB681A6ABB681B699A422E
:1030BC000BD3BB681B69C7F88C30BB681A6AD7F88E
:1030CC008C30D21ABB681A6217E0BB681B6A002BE3
:1030DC0008D1B7F88630C7F88C30BB68002283F86B
:1030EC0024200AE0BB68002283F82420BB681B6AFA
:1030FC00C7F88C30BB6800221A62BB685B78002B67
:10310C0065D1FB681B68FB63FB681B68B3F8503028
:10311C009BB21A46FB6B1344FB63BB681B781A010A
:10312C00FB6B134403F20443BB63BB6B1B889BB266
:10313C00C3F309039AB2BB6B1A80D7F88C303E2BC1
:10314C001DD9D7F88C305B09BB64D7F88C3003F0F1
:10315C001F03002B02D1BB6C013BBB64BB6B1B88F8
:10316C009AB2BB6C9BB29B029BB213439BB26FEAAD
:10317C0043436FEA53439AB2BB6B1A8044E0D7F8CF
:10318C008C30002B0AD1BB6B1B889BB26FEA43437C
:10319C006FEA53439AB2BB6B1A8035E0D7F88C3088
:1031AC005B08BB64D7F88C3003F00103002B02D012
:1031BC00BB6C0133BB64BB6B1B889AB2BB6C9BB200
:1031CC009B029BB213439AB2BB6B1A801CE0BB6888
:1031DC005B78012B18D1FB681B687B64FB681B6850
:1031EC00B3F850309BB21A467B6C13447B64BB68BB
:1031FC001B781A017B6C134403F204433B64D7F82D
:10320C008C309AB23B6C1A80FB681868BB685969A1
:10321C00BB681A89D7F88C309BB204F070FAE2E1E3
:10322C00FB681B68B3F850309BB21A46BB681B781E
:10323C00DB00134406335B00FA681268134403F591
:10324C0080631B88C3F30903A7F88630BB689A69AF
:10325C00B7F886309A4207D3BB689A69B7F88630BC
:10326C00D21ABB689A6102E0BB6800229A61BB6803
:10327C009B69002B40F0C080BB685B78002B26D18B
:10328C00FB681B68FB67FB681B68B3F850309BB28C
:10329C001A46FB6F1344FB67BB681B781A01FB6F64
:1032AC00134403F20443BB67BB6F1B889BB2C3F38D
:1032BC0009039AB2BB6F1A80BB6F1B889BB26FEA73
:1032CC0043436FEA53439AB2BB6F1A801AE0BB6850
:1032DC005B78012B16D1FB681B687B66FB681B684F
:1032EC00B3F850309BB21A467B6E13447B66BB68B6
:1032FC001B781A017B6E134403F204433B663B6E4E
:10330C0000221A80FB681B687B67BB685B78002B0C
:10331C002BD1FB681B68FB66FB681B68B3F850304D
:10332C009BB21A46FB6E1344FB66BB681B781A01F2
:10333C00FB6E134403F20C43C7F88030D7F880308F
:10334C001B889BB2C3F309039AB2D7F880301A805A
:10335C00D7F880301B889BB26FEA43436FEA534324
:10336C009AB2D7F880301A8017E0BB685B78012BD3
:10337C0013D1FB681B68B3F850309BB21A467B6FB5
:10338C0013447B67BB681B781A017B6F134403F2F1
:10339C000C433B673B6F00221A80BB681B781946B5
:1033AC00F86805F0F8FEFB8803F48043002B40F02E
:1033BC001A81FB681B681A46BB681B789B00134478
:1033CC001B889BB223F4E04323F07003A7F88830EA
:1033DC00FB681B681A46BB681B789B001A44B7F83D
:1033EC00883043F07F4343F47F0343F4404343F07E
:1033FC0080039BB21380F6E0FB8803F48043002B20
:10340C0021D1FB681B681A46BB681B789B001344D0
:10341C001B889BB223F4E04323F07003A7F84E30D3
:10342C00FB681B681A46BB681B789B001A44B7F8EC
:10343C004E3043F07F4343F47F0343F4404343F067
:10344C0080039BB21380BB6893F82430012B40F0AF
:10345C00CA80BB685A69B7F886301A44BB685A618F
:10346C00BB68DA69B7F886301A44BB68DA61BB68A6
:10347C001A6ABB681B699A420BD3BB681B69C7F8F5
:10348C008C30BB681A6AD7F88C30D21ABB681A62B7
:10349C0017E0BB681B6A002B08D1B7F88630C7F859
:1034AC008C30BB68002283F824200AE0BB681B6ABE
:1034BC00C7F88C30BB6800221A62BB68002283F804
:1034CC002420FB681B687B65BB685B78002B65D18F
:1034DC00FB681B68FB65FB681B68B3F850309BB23C
:1034EC001A46FB6D1344FB65BB681B781A01FB6D18
:1034FC00134403F20C43BB65BB6D1B889BB2C3F337
:10350C0009039AB2BB6D1A80D7F88C303E2B1DD9AB
:10351C00D7F88C305B09BB66D7F88C3003F01F03EF
:10352C00002B02D1BB6E013BBB66BB6D1B889AB2F4
:10353C00BB6E9BB29B029BB213439BB26FEA43439D
:10354C006FEA53439AB2BB6D1A8041E0D7F88C30C6
:10355C00002B0AD1BB6D1B889BB26FEA43436FEA09
:10356C0053439AB2BB6D1A8032E0D7F88C305B08AB
:10357C00BB66D7F88C3003F00103002B02D0BB6E76
:10358C000133BB66BB6D1B889AB2BB6E9BB29B02B0
:10359C009BB213439AB2BB6D1A8019E0BB685B787F
:1035AC00012B15D1FB681B68B3F850309BB21A463F
:1035BC007B6D13447B65BB681B781A017B6D1344D0
:1035CC0003F20C433B65D7F88C309AB23B6D1A80F2
:1035DC00FB681868BB685969BB685A89D7F88C3086
:1035EC009BB204F08CF8FB681B681A46BB681B780E
:1035FC009B0013441B889BB223F4E04323F040034D
:10360C00BB82BB8A83F01003BB82BB8A83F020038E
:10361C00BB82FB681B681A46BB681B789B001A446C
:10362C00BB8A43F07F4343F47F0343F4004343F0EE
:10363C0080039BB21380002318469037BD4680BD93
:10364C0080B487B000AFF8607B600B467B8113467B
:10365C003B817B8903F080039BB2002B0BD07B89D1
:10366C0003F0070213469B001344DB001033FA6887
:10367C0013447B6109E07A8913469B001344DB00F9
:10368C0003F5A873FA6813447B613B89002B07D1BF
:10369C007B6900221A737B689AB27B69DA800BE033
:1036AC007B6901221A737B689AB27B691A817B68E9
:1036BC001B0C9AB27B695A81002318461C37BD46F5
:1036CC0080BC704780B586B000AF78607B68002BFB
:1036DC0001D1012372E27B681B6803F00103002B0C
:1036EC0000F08780924B5B6803F00C03042B0CD02A
:1036FC008F4B5B6803F00C03082B12D18C4B5B686F
:10370C0003F48033B3F5803F0BD1894B1B6803F472
:10371C000033002B6CD07B685B68002B68D10123D5
:10372C004CE27B685B68B3F5803F06D1804B1B682D
:10373C007F4A43F4803313602EE07B685B68002B78
:10374C000CD17B4B1B687A4A23F480331360784B83
:10375C001B68774A23F4802313601DE07B685B6849
:10376C00B3F5A02F0CD1724B1B68714A43F4802324
:10377C0013606F4B1B686E4A43F4803313600BE08D
:10378C006B4B1B686A4A23F480331360684B1B68CD
:10379C00674A23F4802313607B685B68002B13D08B
:1037AC00FDF7EEFA386108E0FDF7EAFA02463B69EC
:1037BC00D31A642B01D9032300E25D4B1B6803F47D
:1037CC000033002BF0D014E0FDF7DAFA386108E092
:1037DC00FDF7D6FA02463B69D31A642B01D90323B1
:1037EC00ECE1534B1B6803F40033002BF0D100E0E9
:1037FC0000BF7B681B6803F00203002B63D04C4BAB
:10380C005B6803F00C03002B0BD0494B5B6803F097
:10381C000C03082B1CD1464B5B6803F48033002B44
:10382C0016D1434B1B6803F00203002B05D07B68B9
:10383C001B69012B01D00123C0E13D4B1B6823F018
:10384C00F8027B685B69DB00394913430B603AE093
:10385C007B681B69002B20D0364B01221A60FDF7C8
:10386C008FFA386108E0FDF78BFA02463B69D31AF0
:10387C00022B01D90323A1E12D4B1B6803F002039A
:10388C00002BF0D02A4B1B6823F0F8027B685B6995
:10389C00DB00274913430B6015E0264B00221A600E
:1038AC00FDF76EFA386108E0FDF76AFA02463B69EB
:1038BC00D31A022B01D9032380E11D4B1B6803F0A3
:1038CC000203002BF0D17B681B6803F00803002B6C
:1038DC003AD07B689B69002B19D0174B01221A60D8
:1038EC00FDF74EFA386108E0FDF74AFA02463B69EB
:1038FC00D31A022B01D9032360E10D4B5B6A03F051
:10390C000203002BF0D0012000F0CEFA1CE00A4B91
:10391C0000221A60FDF734FA38610FE0FDF730FA37
:10392C0002463B69D31A022B08D9032346E100BF98
:10393C00001002400000424280044242924B5B6AFB
:10394C0003F00203002BE9D17B681B6803F004032E
:10395C00002B00F0A6800023FB758B4BDB6903F07A
:10396C008053002B0DD1884BDB69874A43F0805381
:10397C00D361854BDB6903F08053BB60BB680123CB
:10398C00FB75824B1B6803F48073002B18D17F4BA3
:10399C001B687E4A43F480731360FDF7F1F93861BC
:1039AC0008E0FDF7EDF902463B69D31A642B01D907
:1039BC00032303E1754B1B6803F48073002BF0D0D9
:1039CC007B68DB68012B06D16F4B1B6A6E4A43F098
:1039DC00010313622DE07B68DB68002B0CD16A4B72
:1039EC001B6A694A23F001031362674B1B6A664A20
:1039FC0023F0040313621CE07B68DB68052B0CD1FD
:103A0C00614B1B6A604A43F0040313625E4B1B6AF2
:103A1C005D4A43F0010313620BE05B4B1B6A5A4A8D
:103A2C0023F001031362584B1B6A574A23F004031B
:103A3C0013627B68DB68002B15D0FDF7A1F93861A8
:103A4C000AE0FDF79DF902463B69D31A41F2883230
:103A5C00934201D90323B1E04B4B1B6A03F00203E1
:103A6C00002BEED014E0FDF78BF938610AE0FDF77E
:103A7C0087F902463B69D31A41F28832934201D945
:103A8C0003239BE0404B1B6A03F00203002BEED197
:103A9C00FB7D012B05D13C4BDB693B4A23F080536A
:103AAC00D3617B68DB69002B00F08780364B5B6849
:103ABC0003F00C03082B61D07B68DB69022B46D129
:103ACC00334B00221A60FDF75BF9386108E0FDF713
:103ADC0057F902463B69D31A022B01D903236DE037
:103AEC00294B1B6803F00073002BF0D17B681B6A19
:103AFC00B3F5803F08D1244B5B6823F400327B681C
:103B0C009B68214913434B601F4B5B6823F4741271
:103B1C007B68196A7B685B6A0B431B4913434B60D8
:103B2C001B4B01221A60FDF72BF9386108E0FDF7F9
:103B3C0027F902463B69D31A022B01D903233DE036
:103B4C00114B1B6803F00073002BF0D035E0104BC9
:103B5C0000221A60FDF714F9386108E0FDF710F93E
:103B6C0002463B69D31A022B01D9032326E0064BEC
:103B7C001B6803F00073002BF0D11EE07B68DB693F
:103B8C00012B07D1012319E0001002400070004006
:103B9C00600042420B4B5B68FB60FB6803F48032B5
:103BAC007B681B6A9A4206D1FB6803F470127B682F
:103BBC005B6A9A4201D0012300E0002318461837B3
:103BCC00BD4680BD0010024080B584B000AF786067
:103BDC0039607B68002B01D10123D0E06A4B1B6854
:103BEC0003F007033A689A4210D9674B1B6823F01D
:103BFC00070265493B6813430B60634B1B6803F07A
:103C0C0007033A689A4201D00123B8E07B681B682D
:103C1C0003F00203002B20D07B681B6803F0040325
:103C2C00002B05D0594B5B68584A43F4E063536052
:103C3C007B681B6803F00803002B05D0534B5B68B3
:103C4C00524A43F460535360504B5B6823F0F002CC
:103C5C007B689B684D4913434B607B681B6803F082
:103C6C000103002B40D07B685B68012B07D1474BCD
:103C7C001B6803F40033002B15D101237FE07B6814
:103C8C005B68022B07D1414B1B6803F00073002BC0
:103C9C0009D1012373E03D4B1B6803F00203002B99
:103CAC0001D101236BE0394B5B6823F003027B6885
:103CBC005B68364913434B60FDF762F8F8600AE025
:103CCC00FDF75EF80246FB68D31A41F28832934244
:103CDC0001D9032353E02D4B5B6803F00C027B6886
:103CEC005B689B009A42EBD1274B1B6803F00703E0
:103CFC003A689A4210D2244B1B6823F007022249DF
:103D0C003B6813430B60204B1B6803F007033A68B6
:103D1C009A4201D0012332E07B681B6803F0040354
:103D2C00002B08D0194B5B6823F4E0627B68DB68DE
:103D3C00164913434B607B681B6803F00803002B88
:103D4C0009D0124B5B6823F460527B681B69DB0063
:103D5C000E4913434B6000F021F802460B4B5B6895
:103D6C001B0903F00F030A49CB5C22FA03F3094A3F
:103D7C001360094B1B681846FCF7C0FF002318465C
:103D8C001037BD4680BD00BF00200240001002402D
:103D9C00CC980008000000200400002080B487B0FC
:103DAC0000AF0023FB600023BB6000237B6100237A
:103DBC007B6000233B611E4B5B68FB60FB6803F080
:103DCC000C03042B02D0082B03D027E0194B3B61CA
:103DDC0027E0FB689B0C03F00F03174AD35C7B6056
:103DEC00FB6803F48033002B10D0114B5B685B0C29
:103DFC0003F00103114AD35CBB607B680D4A03FBE3
:103E0C0002F2BB68B2FBF3F37B6104E07B680C4A03
:103E1C0002FB03F37B617B693B6102E0054B3B6179
:103E2C0000BF3B6918461C37BD4680BC704700BFBD
:103E3C000010024000127A00E4980008F498000880
:103E4C0000093D0080B400AF024B1B681846BD460C
:103E5C0080BC70470000002080B500AFFFF7F2FF78
:103E6C000246054B5B681B0A03F007030349CB5C56
:103E7C0022FA03F3184680BD00100240DC980008BB
:103E8C0080B500AFFFF7DEFF0246054B5B68DB0A2F
:103E9C0003F007030349CB5C22FA03F3184680BDF9
:103EAC0000100240DC98000880B485B000AF786048
:103EBC000A4B1B680A4AA2FB03235B0A7A6802FBC3
:103ECC0003F3FB6000BFFB685A1EFA60002BF9D1AC
:103EDC0000BF00BF1437BD4680BC704700000020F7
:103EEC00D34D621080B586B000AF786000233B6183
:103EFC000023FB607B681B6803F00103002B7DD063
:103F0C000023FB754F4BDB6903F08053002B0DD165
:103F1C004C4BDB694B4A43F08053D361494BDB6913
:103F2C0003F08053BB60BB680123FB75464B1B68D9
:103F3C0003F48073002B18D1434B1B68424A43F4A3
:103F4C0080731360FCF71CFF386108E0FCF718FF66
:103F5C0002463B69D31A642B01D903236DE03A4B1B
:103F6C001B6803F48073002BF0D0364B1B6A03F4F0
:103F7C004073FB60FB68002B2ED07B685B6803F4FE
:103F8C004073FA689A4227D02E4B1B6A23F4407375
:103F9C00FB602E4B01221A602C4B00221A60294A1E
:103FAC00FB681362FB6803F00103002B14D0FCF7D1
:103FBC00E7FE38610AE0FCF7E3FE02463B69D31AE0
:103FCC0041F28832934201D9032336E01D4B1B6A20
:103FDC0003F00203002BEED01A4B1B6A23F4407241
:103FEC007B685B68174913430B62FB7D012B05D182
:103FFC00144BDB69134A23F08053D3617B681B6835
:10400C0003F00203002B08D00E4B5B6823F44042F4
:10401C007B689B680B4913434B607B681B6803F000
:10402C001003002B08D0074B5B6823F480027B68DD
:10403C00DB68044913434B60002318461837BD4610
:10404C0080BD00BF0010024000700040400442429E
:10405C0080B582B000AF78607B68002B01D1012362
:10406C0042E07B6893F84130DBB2002B06D17B68D1
:10407C00002283F840207868FCF732FC7B6824220D
:10408C0083F841207B681B68DA687B681B6822F424
:10409C000052DA60786800F0A3FF7B681B681A692D
:1040AC007B681B6822F490421A617B681B685A6912
:1040BC007B681B6822F02A025A617B681B68DA68ED
:1040CC007B681B6842F40052DA607B6800225A64F9
:1040DC007B68202283F841207B68202283F84220D1
:1040EC007B6800225A63002318460837BD4680BD02
:1040FC0080B58CB000AFF860B9601346FB80FB68EC
:10410C0093F84130DBB2202B56D1BB68002B02D088
:10411C00FB88002B01D101234FE0BA68FB681A62BF
:10412C00FB68FA889A84FB68FA88DA84FB680022B8
:10413C005A64FB68212283F84120FB689B6B214A5F
:10414C009A62FB689B6B204ADA62FB689B6B1F4A86
:10415C001A63FB689B6B00225A6307F10803FB622E
:10416C00FB68986BFB6A1968FB681B6804331A467A
:10417C00FB88FCF7EAFFFB681B686FF040021A60D3
:10418C00FB681B681433BB61BB6953E8003F7B6160
:10419C007B6943F08003BB62FB681B681433BA6A0B
:1041AC007A623B62396A7A6A41E80023FB61FB69F7
:1041BC00002BE5D1002300E0022318463037BD4622
:1041CC0080BD00BF834800081D490008A14A0008B3
:1041DC0080B584B000AFF860B9601346FB80FB6813
:1041EC0093F84230DBB2202B12D1BB68002B02D0EB
:1041FC00FB88002B01D101230BE0FB6800221A6322
:10420C00FB881A46B968F86800F08EFC034600E09B
:10421C00022318461037BD4680BD80B590B000AF64
:10422C0078600023FB637B681B685B6903F0800389
:10423C00002B14BF01230023DBB2FB637B6893F8D4
:10424C004130DBB2212B28D1FB6B002B25D07B68B6
:10425C001B6814337B627B6A53E8003F3B623B6A0A
:10426C0023F08003BB637B681B681433BA6B3A631F
:10427C00FB62F96A3A6B41E80023BB62BB6A002B14
:10428C00E5D17B689B6B002B04D07B689B6B18463D
:10429C00FCF7BBFF786800F0E1FC7B681B685B698E
:1042AC0003F04003002B14BF01230023DBB2FB639C
:1042BC007B6893F84230DBB2222B28D1FB6B002BAE
:1042CC0025D07B681B6814333B613B6953E8003F86
:1042DC00FB60FB6823F040037B637B681B68143333
:1042EC007A6BFA61BB61B969FA6941E800237B61B9
:1042FC007B69002BE5D17B68DB6B002B04D07B68E2
:10430C00DB6B1846FCF781FF786800F0CEFC0023CD
:10431C0018464037BD4680BD80B5BAB000AF786056
:10432C007B681B681B68C7F8E4307B681B68DB681C
:10433C00C7F8E0307B681B685B69C7F8DC3000238A
:10434C00C7F8D8300023C7F8D430D7F8E43003F0DE
:10435C000F03C7F8D830D7F8D830002B0FD1D7F8C7
:10436C00E43003F02003002B09D0D7F8E03003F041
:10437C002003002B03D0786800F074FD5BE2D7F8C3
:10438C00D830002B00F0DE80D7F8DC3003F00103CE
:10439C00002B06D1D7F8E03003F49073002B00F01B
:1043AC00D180D7F8E43003F00103002B0BD0D7F801
:1043BC00E03003F48073002B05D07B685B6C43F01A
:1043CC0001027B685A64D7F8E43003F00403002B35
:1043DC000BD0D7F8DC3003F00103002B05D07B6841
:1043EC005B6C43F002027B685A64D7F8E43003F04C
:1043FC000203002B0BD0D7F8DC3003F00103002BA9
:10440C0005D07B685B6C43F004027B685A64D7F878
:10441C00E43003F00803002B11D0D7F8E03003F0A0
:10442C002003002B05D1D7F8DC3003F00103002B5F
:10443C0005D07B685B6C43F008027B685A647B6830
:10444C005B6C002B00F0F281D7F8E43003F0200312
:10445C00002B08D0D7F8E03003F02003002B02D05B
:10446C00786800F0FFFC7B681B685B6903F0400315
:10447C00002B14BF01230023DBB2C7F8D4307B68B8
:10448C005B6C03F00803002B03D1D7F8D430002B5E
:10449C004FD0786800F009FC7B681B685B6903F0FF
:1044AC004003002B41D07B681B681433C7F89C3049
:1044BC00D7F89C3053E8003FC7F89830D7F89830BD
:1044CC0023F04003C7F8D0307B681B681433D7F84F
:1044DC00D020C7F8A820C7F8A430D7F8A410D7F874
:1044EC00A82041E80023C7F8A030D7F8A030002B53
:1044FC00D9D17B68DB6B002B13D07B68DB6B7E4ADE
:10450C005A637B68DB6B1846FCF7BAFE0346002B3C
:10451C0016D07B68DB6B5B6B7A68D26B1046984766
:10452C000EE07868FCF78CFB0AE07868FCF788FBF7
:10453C0006E07868FCF784FB7B6800225A6475E11E
:10454C0000BF73E17B681B6B012B40F04F81D7F8E8
:10455C00E43003F01003002B00F04881D7F8E03072
:10456C0003F01003002B00F041810023BB607B683B
:10457C001B681B68BB607B681B685B68BB60BB68A7
:10458C007B681B685B6903F04003002B00F0B6806E
:10459C007B68DB6B1B685B68A7F8BE30B7F8BE3076
:1045AC00002B00F045817B689B8DB7F8BE209A42AA
:1045BC0080F03E817B68B7F8BE20DA857B68DB6BC8
:1045CC009B69202B00F088807B681B680C33C7F834
:1045DC008830D7F8883053E8003FC7F88430D7F8D4
:1045EC00843023F48073C7F8B8307B681B680C33B5
:1045FC00D7F8B820C7F89420C7F89030D7F89010A7
:10460C00D7F8942041E80023C7F88C30D7F88C30C9
:10461C00002BD9D17B681B6814337B677B6F53E805
:10462C00003F3B673B6F23F00103C7F8B4307B6856
:10463C001B681433D7F8B420C7F88020FB67F96FD8
:10464C00D7F8802041E80023BB67BB6F002BE1D17A
:10465C007B681B6814333B663B6E53E8003FFB657D
:10466C00FB6D23F04003C7F8B0307B681B68143334
:10467C00D7F8B020FA66BB66B96EFA6E41E8002333
:10468C007B667B6E002BE3D17B68202283F8422073
:10469C007B6800221A637B681B680C33FB64FB6C21
:1046AC0053E8003FBB64BB6C23F01003C7F8AC307D
:1046BC007B681B680C33D7F8AC20BA657B65796DC9
:1046CC00BA6D41E800233B653B6D002BE3D17B6861
:1046DC00DB6B1846FCF799FD7B6802225A637B68FA
:1046EC009A8D7B68DB8D9BB2D31A9BB21946786886
:1046FC0000F0B6F89CE000BF7B4D00087B689A8DFB
:10470C007B68DB8D9BB2D31AA7F8CE307B68DB8D30
:10471C009BB2002B00F08E80B7F8CE30002B00F04F
:10472C0089807B681B680C33BB63BB6B53E8003F11
:10473C007B637B6B23F49073C7F8C8307B681B6872
:10474C000C33D7F8C8207A643B64396C7A6C41E836
:10475C000023FB63FB6B002BE3D17B681B681433DA
:10476C007B627B6A53E8003F3B623B6A23F00103A8
:10477C00C7F8C4307B681B681433D7F8C4203A637D
:10478C00FB62F96A3A6B41E80023BB62BB6A002BFF
:10479C00E3D17B68202283F842207B6800221A63D5
:1047AC007B681B680C333B613B6953E8003FFB6043
:1047BC00FB6823F01003C7F8C0307B681B680C3310
:1047CC00D7F8C020FA61BB61B969FA6941E80023E6
:1047DC007B617B69002BE3D17B6802225A63B7F8BB
:1047EC00CE301946786800F03BF823E0D7F8E43077
:1047FC0003F08003002B09D0D7F8E03003F08003DE
:10480C00002B03D0786800F0C6FA14E0D7F8E43037
:10481C0003F04003002B0ED0D7F8E03003F0400338
:10482C00002B08D0786800F005FB04E000BF02E024
:10483C0000BF00E000BFE837BD4680BD80B483B048
:10484C0000AF786000BF0C37BD4680BC704780B4A9
:10485C0083B000AF786000BF0C37BD4680BC70479A
:10486C0080B483B000AF78600B467B8000BF0C3700
:10487C00BD4680BC704780B590B000AF78607B6857
:10488C005B6AFB637B681B681B6803F02003002BCF
:10489C0037D1FB6B0022DA84FB6B1B6814337B6211
:1048AC007B6A53E8003F3B623B6A23F08003BB63A7
:1048BC00FB6B1B681433BA6B3A63FB62F96A3A6B95
:1048CC0041E80023BB62BB6A002BE5D1FB6B1B6884
:1048DC000C333B613B6953E8003FFB60FB6843F0E2
:1048EC0040037B63FB6B1B680C337A6BFA61BB6117
:1048FC00B969FA6941E800237B617B69002BE5D13A
:10490C0002E0F86BFFF79AFF00BF4037BD4680BD51
:10491C0080B584B000AF78607B685B6AFB60F86838
:10492C00FFF795FF00BF1037BD4680BD80B59CB02A
:10493C0000AF78607B685B6AFB667B681B681B68F2
:10494C0003F02003002B72D1FB6E0022DA85FB6E84
:10495C001B680C33FB64FB6C53E8003FBB64BB6C03
:10496C0023F48073BB66FB6E1B680C33BA6EBA659E
:10497C007B65796DBA6D41E800233B653B6D002B7F
:10498C00E5D1FB6E1B681433BB63BB6B53E8003F74
:10499C007B637B6B23F001037B66FB6E1B6814331C
:1049AC007A6E7A643B64396C7A6C41E80023FB6361
:1049BC00FB6B002BE5D1FB6E1B6814337B627B6AAF
:1049CC0053E8003F3B623B6A23F040033B66FB6EBF
:1049DC001B6814333A6E3A63FB62F96A3A6B41E82E
:1049EC000023BB62BB6A002BE5D1FB6E202283F84F
:1049FC004220FB6E1B6B012B19D1FB6E1B680C3319
:104A0C003B613B6953E8003FFB60FB6823F01003FC
:104A1C00FB65FB6E1B680C33FA6DFA61BB61B969FF
:104A2C00FA6941E800237B617B69002BE5D1FB6EC1
:104A3C0000225A63FB6E1B6B012B06D1FB6E9B8D08
:104A4C001946F86EFFF70CFF02E0F86EFCF7C0F8A1
:104A5C0000BF7037BD4680BD80B584B000AF7860B4
:104A6C007B685B6AFB60FB6801225A63FB681B6B0B
:104A7C00012B08D1FB689B8D5B089BB21946F8682B
:104A8C00FFF7EEFE02E0F868FCF76AF800BF10379B
:104A9C00BD4680BD80B584B000AF78600023FB605C
:104AAC007B685B6ABB60BB681B685B6903F0800357
:104ABC00002B14BF01230023DBB2FB60BB6893F80F
:104ACC004130DBB2212B08D1FB68002B05D0BB6831
:104ADC000022DA84B86800F0C1F8BB681B685B6917
:104AEC0003F04003002B14BF01230023DBB2FB6057
:104AFC00BB6893F84230DBB2222B08D1FB68002B49
:104B0C0005D0BB680022DA85B86800F0CEF8BB6827
:104B1C005B6C43F01002BB685A64B868FCF790F801
:104B2C0000BF1037BD4680BD80B598B000AFF860AF
:104B3C00B9601346FB80BA68FB689A62FB68FA8816
:104B4C009A85FB6800225A64FB68222283F8422073
:104B5C00FB68DB6B3E4A9A62FB68DB6B3D4ADA62B0
:104B6C00FB68DB6B3C4A1A63FB68DB6B00225A6305
:104B7C0007F10803FB65FB68D86BFB681B68043303
:104B8C001946FB6D1A68FB88FCF7DFFA00233B61C2
:104B9C00FB681B681B683B61FB681B685B683B61BF
:104BAC003B69FB681B69002B19D0FB681B680C3335
:104BBC003B643B6C53E8003FFB63FB6B43F480733B
:104BCC00BB65FB681B680C33BA6DFA64BB64B96CCB
:104BDC00FA6C41E800237B647B6C002BE5D1FB680D
:104BEC001B681433FB62FB6A53E8003FBB62BB6A71
:104BFC0043F001037B65FB681B6814337A6DBA6361
:104C0C007B63796BBA6B41E800233B633B6B002BF6
:104C1C00E5D1FB681B681433BB61BB6953E8003FEB
:104C2C007B617B6943F040033B65FB681B68143375
:104C3C003A6D7A623B62396A7A6A41E80023FB6119
:104C4C00FB69002BE5D1002318466037BD4680BDBB
:104C5C0039490008654A0008A14A000880B489B0A7
:104C6C0000AF78607B681B680C33FB60FB6853E813
:104C7C00003FBB60BB6823F0C003FB617B681B6813
:104C8C000C33FA69BA617B617969BA6941E800232E
:104C9C003B613B69002BE5D17B68202283F84120E6
:104CAC0000BF2437BD4680BC704780B495B000AFC0
:104CBC0078607B681B680C337B637B6B53E8003F2D
:104CCC003B633B6B23F49073FB647B681B680C3376
:104CDC00FA6C3A64FB63F96B3A6C41E80023BB63F2
:104CEC00BB6B002BE5D17B681B6814333B623B6AC2
:104CFC0053E8003FFB61FB6923F00103BB647B6855
:104D0C001B681433BA6CFA62BB62B96AFA6A41E87E
:104D1C0000237B627B6A002BE5D17B681B6B012B2C
:104D2C0019D17B681B680C33FB60FB6853E8003FB0
:104D3C00BB60BB6823F010037B647B681B680C337F
:104D4C007A6CBA617B617969BA6941E800233B618D
:104D5C003B69002BE5D17B68202283F842207B68DD
:104D6C0000221A6300BF5437BD4680BC704780B523
:104D7C0084B000AF78607B685B6AFB60FB680022E4
:104D8C00DA85FB680022DA84F868FBF759FF00BF6C
:104D9C001037BD4680BD80B485B000AF78607B68AD
:104DAC0093F84130DBB2212B3ED17B689B68B3F585
:104DBC00805F14D17B681B69002B10D17B681B6A48
:104DCC00FB60FB681B881A467B681B68C2F30802F1
:104DDC005A607B681B6A9A1C7B681A6208E07B68C5
:104DEC001B6A591C7A6811621A787B681B685A60B6
:104DFC007B68DB8C9BB2013B9BB27A681946D184F1
:104E0C00002B0FD17B681B68DA687B681B6822F06B
:104E1C008002DA607B681B68DA687B681B6842F08A
:104E2C004002DA60002300E0022318461437BD4626
:104E3C0080BC704780B582B000AF78607B681B681F
:104E4C00DA687B681B6822F04002DA607B682022FB
:104E5C0083F841207868FFF7F1FC002318460837E7
:104E6C00BD4680BD80B58CB000AF78607B6893F890
:104E7C004230DBB2222B40F0AE807B689B68B3F5EE
:104E8C00805F17D17B681B69002B13D10023FB6259
:104E9C007B689B6ABB627B681B685B689BB2C3F3D5
:104EAC0008039AB2BB6A1A807B689B6A9A1C7B685F
:104EBC009A6226E07B689B6AFB620023BB627B687C
:104ECC009B68B3F5805F07D07B689B68002B0AD189
:104EDC007B681B69002B06D17B681B685B68DAB2A8
:104EEC00FB6A1A7008E07B681B685B68DBB203F036
:104EFC007F03DAB2FB6A1A707B689B6A5A1C7B6868
:104F0C009A627B68DB8D9BB2013B9BB27A68194637
:104F1C00D185002B5DD17B681B68DA687B681B68C8
:104F2C0022F02002DA607B681B68DA687B681B68F9
:104F3C0022F48072DA607B681B685A697B681B6894
:104F4C0022F001025A617B68202283F842207B68A0
:104F5C0000225A637B681B6B012B35D17B680022C6
:104F6C001A637B681B680C337B617B6953E8003FD9
:104F7C003B613B6923F010037B627B681B680C333D
:104F8C007A6A3A62FB61F9693A6A41E80023BB61CB
:104F9C00BB69002BE5D17B681B681B6803F0100311
:104FAC00102B0AD10023FB607B681B681B68FB601D
:104FBC007B681B685B68FB60FB687B689B8D194694
:104FCC007868FFF74DFC02E07868FBF701FE0023E0
:104FDC0002E0002300E0022318463037BD4680BDB6
:104FEC0080B584B000AF78607B681B681B6923F4C4
:104FFC0040517B68DA687B681B680A431A617B68DE
:10500C009A687B681B691A437B685B691343BB60B6
:10501C007B681B68DB6823F4B05323F00C037A68BD
:10502C001268B9680B43D3607B681B685B6923F417
:10503C0040717B689A697B681B680A435A617B687C
:10504C001B682C4A934203D1FEF71AFFF86002E06A
:10505C00FEF702FFF860FA6813469B0013449A00AF
:10506C001A447B685B689B00B2FBF3F3224AA2FBF9
:10507C0003235B091901FA6813469B0013449A0039
:10508C001A447B685B689B00B2FBF3F21A4BA3FBE0
:10509C0002035B09642000FB03F3D31A1B013233B8
:1050AC00154AA2FB03235B0903F0F0031944FA68C9
:1050BC0013469B0013449A001A447B685B689B0060
:1050CC00B2FBF3F20C4BA3FB02035B09642000FB65
:1050DC0003F3D31A1B013233074AA2FB03235B09E8
:1050EC0003F00F027B681B680A449A6000BF1037FC
:1050FC00BD4680BD003801401F85EB5180B485B0A2
:10510C0000AFF860384680E80E00002318461437CC
:10511C00BD4680BC704780B485B000AF78607B68BA
:10512C000022A3F844204FF43F43FB60FB689AB283
:10513C007B68A3F84020002318461437BD4680BC7A
:10514C00704780B485B000AF78604FF43F43FB608C
:10515C007B68B3F840309AB2FB689BB2DB439BB2DE
:10516C0013409AB27B68A3F84020002318461437EA
:10517C00BD4680BC704780B483B000AF78600B46EE
:10518C00FB70002318460C37BD4680BC704780B4BA
:10519C0085B000AFF860384680E80E00FB6801224D
:1051AC00A3F84020FB680022A3F84020FB680022F3
:1051BC00A3F84420FB680022A3F8502000231846D3
:1051CC001437BD4680BC704780B49DB000AF78608A
:1051DC003960002387F86F307A683B681B789B0036
:1051EC0013441B889BB223F4EC4323F07003A7F801
:1051FC006C303B68DB78032B1FD801A252F823F0EC
:10520C001D520008395200084F5200082B5200085A
:10521C00B7F86C3043F40073A7F86C3012E0B7F8B1
:10522C006C3043F4C063A7F86C300BE0B7F86C300B
:10523C0043F48063A7F86C3004E0012387F86F30E7
:10524C0000E000BF7A683B681B789B001A44B7F8F3
:10525C006C3043F07F4343F47F0343F4004343F04B
:10526C0080039BB213807A683B681B789B001344C5
:10527C001B889BB223F4E04323F070039BB23A6883
:10528C0012781343A7F866307A683B681B789B004A
:10529C001A44B7F8663043F07F4343F47F0343F47A
:1052AC00004343F080039BB213803B681B7B002BB5
:1052BC0040F078813B685B78002B00F084807B6841
:1052CC00BB617B68B3F850309BB21A46BB69134480
:1052DC00BB613B681B781A01BB69134403F58063FF
:1052EC007B613B68DB885B089BB25B009AB27B6995
:1052FC001A807A683B681B789B0013441B887B825E
:10530C007B8A03F04003002B1BD07A683B681B7828
:10531C009B0013441B889BB223F4E04323F07003DF
:10532C003B827A683B681B789B001A443B8A43F0AB
:10533C007F4343F47F0343F4004343F0C0039BB229
:10534C0013803B68DB78012B20D07A683B681B7894
:10535C009B0013441B889BB223F4E04323F04003CF
:10536C00BB81BB8983F02003BB817A683B681B78C7
:10537C009B001A44BB8943F07F4343F47F0343F4FF
:10538C00004343F080039BB21380D5E27A683B68FC
:10539C001B789B0013441B889BB223F4E04323F03F
:1053AC004003FB817A683B681B789B001A44FB899D
:1053BC0043F07F4343F47F0343F4004343F0800303
:1053CC009BB21380B8E27B683B637B68B3F85030C8
:1053DC009BB21A463B6B13443B633B681B781A0128
:1053EC003B6B134403F58163FB623B68DB885B0812
:1053FC009BB25B009AB2FB6A1A807B68BB627B68CB
:10540C00B3F850309BB21A46BB6A1344BB623B687C
:10541C001B781A01BB6A134403F20C437B627B6A50
:10542C001B889BB2C3F309039AB27B6A1A803B6850
:10543C001B693E2B1DD93B681B695B09BB663B682E
:10544C001B6903F01F03002B02D1BB6E013BBB6633
:10545C007B6A1B889AB2BB6E9BB29B029BB21343B6
:10546C009BB26FEA43436FEA53439AB27B6A1A804A
:10547C0026E03B681B69002B0AD17B6A1B889BB218
:10548C006FEA43436FEA53439AB27B6A1A8017E080
:10549C003B681B695B08BB663B681B6903F0010337
:1054AC00002B02D0BB6E0133BB667B6A1B889AB2A1
:1054BC00BB6E9BB29B029BB213439AB27B6A1A805F
:1054CC007A683B681B789B0013441B887B847B8C1D
:1054DC0003F48043002B1BD07A683B681B789B003D
:1054EC0013441B889BB223F4E04323F070033B84EA
:1054FC007A683B681B789B001A443B8C43F07F43D3
:10550C0043F47F0343F4404343F080039BB2138086
:10551C003B681B78002B24D17A683B681B789B0076
:10552C0013441B889BB223F4804323F07003BB838A
:10553C00BB8B83F48053BB83BB8B83F40053BB8343
:10554C007A683B681B789B001A44BB8B43F07F4303
:10555C0043F47F0343F4004343F080039BB2138076
:10556C00EAE17A683B681B789B0013441B889BB26A
:10557C0023F4804323F07003FB83FB8B83F40053F1
:10558C00FB837A683B681B789B001A44FB8B43F0C7
:10559C007F4343F47F0343F4004343F080039BB207
:1055AC001380C9E13B68DB78022B1ED17A683B681B
:1055BC001B789B0013441B889BB223F4E04323F01D
:1055CC007003A7F862307A683B681B789B001A441A
:1055DC00B7F8623043F07F4343F47F0343F4014355
:1055EC0043F080039BB213801DE07A683B681B7804
:1055FC009B0013441B889BB223F4E24323F07003FB
:10560C00A7F864307A683B681B789B001A44B7F89B
:10561C00643043F07F4343F47F0343F4004343F08F
:10562C0080039BB213807B68FB657B68B3F85030BA
:10563C009BB21A46FB6D1344FB653B681B781A0141
:10564C00FB6D134403F58063BB653B681B895B08EA
:10565C009BB25B009AB2BB6D1A807B687B657B68E2
:10566C00B3F850309BB21A467B6D13447B653B6894
:10567C001B781A017B6D134403F581633B653B6812
:10568C005B895B089BB25B009AB23B6D1A803B68EE
:10569C005B78002B40F093807A683B681B789B000A
:1056AC0013441B88A7F84030B7F8403003F480430C
:1056BC00002B1BD07A683B681B789B0013441B881B
:1056CC009BB223F4E04323F07003FB877A683B68BA
:1056DC001B789B001A44FB8F43F07F4343F47F03FA
:1056EC0043F4404343F080039BB213807A683B68D9
:1056FC001B789B0013441B88BB87BB8F03F04003B4
:10570C00002B1BD07A683B681B789B0013441B88CA
:10571C009BB223F4E04323F070037B877A683B68E9
:10572C001B789B001A447B8F43F07F4343F47F0329
:10573C0043F4004343F0C0039BB213807A683B6888
:10574C001B789B0013441B889BB223F4804323F0EB
:10575C0070033B873B8F83F480533B873B8F83F4F1
:10576C0000533B877A683B681B789B001A443B8F3D
:10577C0043F07F4343F47F0343F4004343F080033F
:10578C009BB213807A683B681B789B0013441B8880
:10579C009BB223F4E04323F04003FB867A683B681A
:1057AC001B789B001A44FB8E43F07F4343F47F032A
:1057BC0043F4004343F080039BB21380BCE07A684F
:1057CC003B681B789B0013441B88A7F84E30B7F836
:1057DC004E3003F48043002B1DD07A683B681B7855
:1057EC009B0013441B889BB223F4E04323F070030B
:1057FC00A7F84C307A683B681B789B001A44B7F8C2
:10580C004C3043F07F4343F47F0343F4404343F075
:10581C0080039BB213807A683B681B789B0013440F
:10582C001B88A7F84A30B7F84A3003F04003002B26
:10583C001DD07A683B681B789B0013441B889BB275
:10584C0023F4E04323F07003A7F848307A683B68F0
:10585C001B789B001A44B7F8483043F07F4343F45D
:10586C007F0343F4004343F0C0039BB213803B68B7
:10587C00DB78012B24D07A683B681B789B0013449F
:10588C001B889BB223F4E04323F04003A7F8443079
:10589C00B7F8443083F02003A7F844307A683B68AB
:1058AC001B789B001A44B7F8443043F07F4343F411
:1058BC007F0343F4004343F080039BB213801DE04D
:1058CC007A683B681B789B0013441B889BB223F4BB
:1058DC00E04323F04003A7F846307A683B681B7816
:1058EC009B001A44B7F8463043F07F4343F47F03E0
:1058FC0043F4004343F080039BB213807A683B6807
:10590C001B789B0013441B889BB223F4804323F029
:10591C007003A7F842307A683B681B789B001A44E6
:10592C00B7F8423043F07F4343F47F0343F4004322
:10593C0043F080039BB2138097F86F30184674378E
:10594C00BD4680BC704700BF80B48DB000AF78609E
:10595C0039603B681B7B002B40F08E803B685B788A
:10596C00002B44D07A683B681B789B0013441B883F
:10597C00BB81BB8903F04003002B1BD07A683B68CA
:10598C001B789B0013441B889BB223F4E04323F049
:10599C0070037B817A683B681B789B001A447B8977
:1059AC0043F07F4343F47F0343F4004343F0C003CD
:1059BC009BB213807A683B681B789B0013441B884E
:1059CC009BB223F4E04323F040033B817A683B68AD
:1059DC001B789B001A443B8943F07F4343F47F03BD
:1059EC0043F4004343F080039BB2138092E17A6846
:1059FC003B681B789B0013441B887B827B8A03F4D7
:105A0C008043002B1BD07A683B681B789B001344A7
:105A1C001B889BB223F4E04323F070033B827A682B
:105A2C003B681B789B001A443B8A43F07F4343F44A
:105A3C007F0343F4404343F080039BB213807A68A6
:105A4C003B681B789B0013441B889BB223F4804358
:105A5C0023F07003FB817A683B681B789B001A4427
:105A6C00FB8943F07F4343F47F0343F4004343F04B
:105A7C0080039BB213804DE13B685B78002B40F0B8
:105A8C00A5807A683B681B789B0013441B883B8479
:105A9C003B8C03F48043002B1BD07A683B681B784B
:105AAC009B0013441B889BB223F4E04323F0700348
:105ABC00FB837A683B681B789B001A44FB8B43F092
:105ACC007F4343F47F0343F4404343F080039BB292
